{
  "_format": "hh-sol-artifact-1",
  "contractName": "MedicineTracker",
  "sourceName": "contracts/core/MedicineTracker.sol",
  "abi": [
    {
      "anonymous": false,
      "inputs": [
        {
          "indexed": false,
          "internalType": "uint256",
          "name": "startId",
          "type": "uint256"
        },
        {
          "indexed": false,
          "internalType": "uint256",
          "name": "endId",
          "type": "uint256"
        },
        {
          "indexed": false,
          "internalType": "string",
          "name": "name",
          "type": "string"
        },
        {
          "indexed": false,
          "internalType": "uint256",
          "name": "quantity",
          "type": "uint256"
        },
        {
          "indexed": true,
          "internalType": "address",
          "name": "manufacturer",
          "type": "address"
        }
      ],
      "name": "BatchProduced",
      "type": "event"
    },
    {
      "anonymous": false,
      "inputs": [
        {
          "indexed": true,
          "internalType": "address",
          "name": "account",
          "type": "address"
        }
      ],
      "name": "DistributorAdded",
      "type": "event"
    },
    {
      "anonymous": false,
      "inputs": [
        {
          "indexed": true,
          "internalType": "address",
          "name": "account",
          "type": "address"
        }
      ],
      "name": "DistributorRemoved",
      "type": "event"
    },
    {
      "anonymous": false,
      "inputs": [
        {
          "indexed": true,
          "internalType": "address",
          "name": "account",
          "type": "address"
        }
      ],
      "name": "ManufacturerAdded",
      "type": "event"
    },
    {
      "anonymous": false,
      "inputs": [
        {
          "indexed": true,
          "internalType": "address",
          "name": "account",
          "type": "address"
        }
      ],
      "name": "ManufacturerRemoved",
      "type": "event"
    },
    {
      "anonymous": false,
      "inputs": [
        {
          "indexed": true,
          "internalType": "uint256",
          "name": "medicineId",
          "type": "uint256"
        },
        {
          "indexed": false,
          "internalType": "string",
          "name": "name",
          "type": "string"
        },
        {
          "indexed": false,
          "internalType": "uint256",
          "name": "batchNumber",
          "type": "uint256"
        },
        {
          "indexed": false,
          "internalType": "uint256",
          "name": "expiryDate",
          "type": "uint256"
        },
        {
          "indexed": true,
          "internalType": "address",
          "name": "manufacturer",
          "type": "address"
        }
      ],
      "name": "MedicineProduced",
      "type": "event"
    },
    {
      "anonymous": false,
      "inputs": [
        {
          "indexed": true,
          "internalType": "uint256",
          "name": "medicineId",
          "type": "uint256"
        },
        {
          "indexed": true,
          "internalType": "address",
          "name": "from",
          "type": "address"
        },
        {
          "indexed": true,
          "internalType": "address",
          "name": "to",
          "type": "address"
        },
        {
          "indexed": false,
          "internalType": "enum MedicineTracker.State",
          "name": "status",
          "type": "uint8"
        }
      ],
      "name": "MedicineTransferred",
      "type": "event"
    },
    {
      "anonymous": false,
      "inputs": [
        {
          "indexed": true,
          "internalType": "address",
          "name": "account",
          "type": "address"
        }
      ],
      "name": "RetailerAdded",
      "type": "event"
    },
    {
      "anonymous": false,
      "inputs": [
        {
          "indexed": true,
          "internalType": "address",
          "name": "account",
          "type": "address"
        }
      ],
      "name": "RetailerRemoved",
      "type": "event"
    },
    {
      "inputs": [
        {
          "internalType": "address",
          "name": "_distributor",
          "type": "address"
        }
      ],
      "name": "addDistributor",
      "outputs": [],
      "stateMutability": "nonpayable",
      "type": "function"
    },
    {
      "inputs": [
        {
          "internalType": "address",
          "name": "_manufacturer",
          "type": "address"
        }
      ],
      "name": "addManufacturer",
      "outputs": [],
      "stateMutability": "nonpayable",
      "type": "function"
    },
    {
      "inputs": [
        {
          "internalType": "address",
          "name": "_retailer",
          "type": "address"
        }
      ],
      "name": "addRetailer",
      "outputs": [],
      "stateMutability": "nonpayable",
      "type": "function"
    },
    {
      "inputs": [
        {
          "internalType": "string",
          "name": "_name",
          "type": "string"
        },
        {
          "internalType": "uint256",
          "name": "_batchNumber",
          "type": "uint256"
        },
        {
          "internalType": "uint256",
          "name": "_expiryDate",
          "type": "uint256"
        },
        {
          "internalType": "uint256",
          "name": "_quantity",
          "type": "uint256"
        }
      ],
      "name": "batchProduceMedicines",
      "outputs": [],
      "stateMutability": "nonpayable",
      "type": "function"
    },
    {
      "inputs": [
        {
          "internalType": "uint256[]",
          "name": "_medicineIds",
          "type": "uint256[]"
        }
      ],
      "name": "batchSellMedicines",
      "outputs": [],
      "stateMutability": "nonpayable",
      "type": "function"
    },
    {
      "inputs": [
        {
          "internalType": "uint256[]",
          "name": "_medicineIds",
          "type": "uint256[]"
        },
        {
          "internalType": "address",
          "name": "_distributor",
          "type": "address"
        }
      ],
      "name": "batchTransferToDistributor",
      "outputs": [],
      "stateMutability": "nonpayable",
      "type": "function"
    },
    {
      "inputs": [
        {
          "internalType": "uint256[]",
          "name": "_medicineIds",
          "type": "uint256[]"
        },
        {
          "internalType": "address",
          "name": "_retailer",
          "type": "address"
        }
      ],
      "name": "batchTransferToRetailer",
      "outputs": [],
      "stateMutability": "nonpayable",
      "type": "function"
    },
    {
      "inputs": [
        {
          "internalType": "address",
          "name": "_address",
          "type": "address"
        }
      ],
      "name": "isDistributor",
      "outputs": [
        {
          "internalType": "bool",
          "name": "",
          "type": "bool"
        }
      ],
      "stateMutability": "view",
      "type": "function"
    },
    {
      "inputs": [
        {
          "internalType": "address",
          "name": "_address",
          "type": "address"
        }
      ],
      "name": "isManufacturer",
      "outputs": [
        {
          "internalType": "bool",
          "name": "",
          "type": "bool"
        }
      ],
      "stateMutability": "view",
      "type": "function"
    },
    {
      "inputs": [
        {
          "internalType": "address",
          "name": "_address",
          "type": "address"
        }
      ],
      "name": "isRetailer",
      "outputs": [
        {
          "internalType": "bool",
          "name": "",
          "type": "bool"
        }
      ],
      "stateMutability": "view",
      "type": "function"
    },
    {
      "inputs": [],
      "name": "medicineCount",
      "outputs": [
        {
          "internalType": "uint256",
          "name": "",
          "type": "uint256"
        }
      ],
      "stateMutability": "view",
      "type": "function"
    },
    {
      "inputs": [
        {
          "internalType": "uint256",
          "name": "",
          "type": "uint256"
        }
      ],
      "name": "medicines",
      "outputs": [
        {
          "internalType": "uint256",
          "name": "id",
          "type": "uint256"
        },
        {
          "internalType": "string",
          "name": "name",
          "type": "string"
        },
        {
          "internalType": "uint256",
          "name": "batchNumber",
          "type": "uint256"
        },
        {
          "internalType": "uint256",
          "name": "expiryDate",
          "type": "uint256"
        },
        {
          "internalType": "address",
          "name": "manufacturer",
          "type": "address"
        },
        {
          "internalType": "address",
          "name": "currentOwner",
          "type": "address"
        },
        {
          "internalType": "enum MedicineTracker.State",
          "name": "status",
          "type": "uint8"
        }
      ],
      "stateMutability": "view",
      "type": "function"
    },
    {
      "inputs": [],
      "name": "owner",
      "outputs": [
        {
          "internalType": "address",
          "name": "",
          "type": "address"
        }
      ],
      "stateMutability": "view",
      "type": "function"
    },
    {
      "inputs": [
        {
          "internalType": "string",
          "name": "_name",
          "type": "string"
        },
        {
          "internalType": "uint256",
          "name": "_batchNumber",
          "type": "uint256"
        },
        {
          "internalType": "uint256",
          "name": "_expiryDate",
          "type": "uint256"
        }
      ],
      "name": "produceMedicine",
      "outputs": [],
      "stateMutability": "nonpayable",
      "type": "function"
    },
    {
      "inputs": [
        {
          "internalType": "address",
          "name": "_distributor",
          "type": "address"
        }
      ],
      "name": "removeDistributor",
      "outputs": [],
      "stateMutability": "nonpayable",
      "type": "function"
    },
    {
      "inputs": [
        {
          "internalType": "address",
          "name": "_manufacturer",
          "type": "address"
        }
      ],
      "name": "removeManufacturer",
      "outputs": [],
      "stateMutability": "nonpayable",
      "type": "function"
    },
    {
      "inputs": [
        {
          "internalType": "address",
          "name": "_retailer",
          "type": "address"
        }
      ],
      "name": "removeRetailer",
      "outputs": [],
      "stateMutability": "nonpayable",
      "type": "function"
    },
    {
      "inputs": [
        {
          "internalType": "uint256",
          "name": "_medicineId",
          "type": "uint256"
        }
      ],
      "name": "sellMedicine",
      "outputs": [],
      "stateMutability": "nonpayable",
      "type": "function"
    },
    {
      "inputs": [
        {
          "internalType": "address",
          "name": "newOwner",
          "type": "address"
        }
      ],
      "name": "transferOwnership",
      "outputs": [],
      "stateMutability": "nonpayable",
      "type": "function"
    },
    {
      "inputs": [
        {
          "internalType": "uint256",
          "name": "_medicineId",
          "type": "uint256"
        },
        {
          "internalType": "address",
          "name": "_distributor",
          "type": "address"
        }
      ],
      "name": "transferToDistributor",
      "outputs": [],
      "stateMutability": "nonpayable",
      "type": "function"
    },
    {
      "inputs": [
        {
          "internalType": "uint256",
          "name": "_medicineId",
          "type": "uint256"
        },
        {
          "internalType": "address",
          "name": "_retailer",
          "type": "address"
        }
      ],
      "name": "transferToRetailer",
      "outputs": [],
      "stateMutability": "nonpayable",
      "type": "function"
    }
  ],
  "bytecode": "0x6080604052348015600f57600080fd5b50336000806101000a81548173ffffffffffffffffffffffffffffffffffffffff021916908373ffffffffffffffffffffffffffffffffffffffff16021790555060018060003373ffffffffffffffffffffffffffffffffffffffff1673ffffffffffffffffffffffffffffffffffffffff16815260200190815260200160002060006101000a81548160ff0219169083151502179055503373ffffffffffffffffffffffffffffffffffffffff167f561138658ca49a8540dc70dcfe64c9026c1c5b9344642242dd6562970f9c127860405160405180910390a2613c37806100f96000396000f3fe608060405234801561001057600080fd5b50600436106101375760003560e01c80637250e224116100b85780638f0c86fa1161007c5780638f0c86fa1461030c57806399604f401461033c578063c5d3973914610358578063c85e766d14610374578063e229f2cb146103aa578063f2fde38b146103c657610137565b80637250e2241461027e578063823fc2e81461029a5780638da5cb5b146102b65780638ec4f505146102d45780638f001323146102f057610137565b806357c1f9e2116100ff57806357c1f9e2146101de5780635da09b88146101fa5780635f8a5afa1461022a5780636a75323f1461024657806370099ec81461026257610137565b8063025df2441461013c57806317d4a491146101585780631d0757ec1461018857806327a25e2e146101a45780634dafd490146101c0575b600080fd5b61015660048036038101906101519190612a35565b6103e2565b005b610172600480360381019061016d9190612b02565b61065e565b60405161017f9190612b4a565b60405180910390f35b6101a2600480360381019061019d9190612bc5565b6106b4565b005b6101be60048036038101906101b99190612c25565b610ac2565b005b6101c8610dee565b6040516101d59190612c81565b60405180910390f35b6101f860048036038101906101f39190612b02565b610df4565b005b610214600480360381019061020f9190612b02565b610f20565b6040516102219190612b4a565b60405180910390f35b610244600480360381019061023f9190612b02565b610f76565b005b610260600480360381019061025b9190612b02565b6110a1565b005b61027c60048036038101906102779190612b02565b6111cd565b005b61029860048036038101906102939190612b02565b6112f9565b005b6102b460048036038101906102af9190612bc5565b611425565b005b6102be611833565b6040516102cb9190612cab565b60405180910390f35b6102ee60048036038101906102e99190612b02565b611857565b005b61030a60048036038101906103059190612cc6565b611983565b005b61032660048036038101906103219190612b02565b611be6565b6040516103339190612b4a565b60405180910390f35b61035660048036038101906103519190612cf3565b611c3c565b005b610372600480360381019061036d9190612d33565b611f81565b005b61038e60048036038101906103899190612cc6565b612309565b6040516103a19796959493929190612eac565b60405180910390f35b6103c460048036038101906103bf9190612cf3565b612420565b005b6103e060048036038101906103db9190612b02565b612765565b005b600160003373ffffffffffffffffffffffffffffffffffffffff1673ffffffffffffffffffffffffffffffffffffffff16815260200190815260200160002060009054906101000a900460ff1661046e576040517f08c379a000000000000000000000000000000000000000000000000000000000815260040161046590612f94565b60405180910390fd5b6005600081548092919061048190612fe3565b91905055506040518060e0016040528060055481526020018481526020018381526020018281526020013373ffffffffffffffffffffffffffffffffffffffff1681526020013373ffffffffffffffffffffffffffffffffffffffff168152602001600060038111156104f7576104f6612e35565b5b81525060046000600554815260200190815260200160002060008201518160000155602082015181600101908161052e9190613237565b50604082015181600201556060820151816003015560808201518160040160006101000a81548173ffffffffffffffffffffffffffffffffffffffff021916908373ffffffffffffffffffffffffffffffffffffffff16021790555060a08201518160050160006101000a81548173ffffffffffffffffffffffffffffffffffffffff021916908373ffffffffffffffffffffffffffffffffffffffff16021790555060c08201518160050160146101000a81548160ff021916908360038111156105fc576105fb612e35565b5b02179055509050503373ffffffffffffffffffffffffffffffffffffffff166005547f1d8f371d44e55e5357653f92f7f728d0132e3d73a4d371c2148566c82ad560db85858560405161065193929190613309565b60405180910390a3505050565b6000600160008373ffffffffffffffffffffffffffffffffffffffff1673ffffffffffffffffffffffffffffffffffffffff16815260200190815260200160002060009054906101000a900460ff169050919050565b600160003373ffffffffffffffffffffffffffffffffffffffff1673ffffffffffffffffffffffffffffffffffffffff16815260200190815260200160002060009054906101000a900460ff16610740576040517f08c379a000000000000000000000000000000000000000000000000000000000815260040161073790612f94565b60405180910390fd5b60008383905011610786576040517f08c379a000000000000000000000000000000000000000000000000000000000815260040161077d90613393565b60405180910390fd5b60648383905011156107cd576040517f08c379a00000000000000000000000000000000000000000000000000000000081526004016107c490613425565b60405180910390fd5b600260008273ffffffffffffffffffffffffffffffffffffffff1673ffffffffffffffffffffffffffffffffffffffff16815260200190815260200160002060009054906101000a900460ff16610859576040517f08c379a000000000000000000000000000000000000000000000000000000000815260040161085090613491565b60405180910390fd5b60005b83839050811015610abc57600084848381811061087c5761087b6134b1565b5b9050602002013590503373ffffffffffffffffffffffffffffffffffffffff166004600083815260200190815260200160002060050160009054906101000a900473ffffffffffffffffffffffffffffffffffffffff1673ffffffffffffffffffffffffffffffffffffffff1614610929576040517f08c379a00000000000000000000000000000000000000000000000000000000081526004016109209061352c565b60405180910390fd5b6000600381111561093d5761093c612e35565b5b6004600083815260200190815260200160002060050160149054906101000a900460ff16600381111561097357610972612e35565b5b146109b3576040517f08c379a00000000000000000000000000000000000000000000000000000000081526004016109aa906135be565b60405180910390fd5b826004600083815260200190815260200160002060050160006101000a81548173ffffffffffffffffffffffffffffffffffffffff021916908373ffffffffffffffffffffffffffffffffffffffff16021790555060016004600083815260200190815260200160002060050160146101000a81548160ff02191690836003811115610a4257610a41612e35565b5b02179055508273ffffffffffffffffffffffffffffffffffffffff163373ffffffffffffffffffffffffffffffffffffffff16827f8e5a6b755a85f8665fba0aadd1657494e5c878a67877534e7c7319143f4a0b276001604051610aa691906135de565b60405180910390a450808060010191505061085c565b50505050565b600360003373ffffffffffffffffffffffffffffffffffffffff1673ffffffffffffffffffffffffffffffffffffffff16815260200190815260200160002060009054906101000a900460ff16610b4e576040517f08c379a0000000000000000000000000000000000000000000000000000000008152600401610b459061366b565b60405180910390fd5b60008282905011610b94576040517f08c379a0000000000000000000000000000000000000000000000000000000008152600401610b8b90613393565b60405180910390fd5b6064828290501115610bdb576040517f08c379a0000000000000000000000000000000000000000000000000000000008152600401610bd2906136d7565b60405180910390fd5b60005b82829050811015610de9576000838383818110610bfe57610bfd6134b1565b5b9050602002013590503373ffffffffffffffffffffffffffffffffffffffff166004600083815260200190815260200160002060050160009054906101000a900473ffffffffffffffffffffffffffffffffffffffff1673ffffffffffffffffffffffffffffffffffffffff1614610cab576040517f08c379a0000000000000000000000000000000000000000000000000000000008152600401610ca29061352c565b60405180910390fd5b60026003811115610cbf57610cbe612e35565b5b6004600083815260200190815260200160002060050160149054906101000a900460ff166003811115610cf557610cf4612e35565b5b14610d35576040517f08c379a0000000000000000000000000000000000000000000000000000000008152600401610d2c90613769565b60405180910390fd5b60036004600083815260200190815260200160002060050160146101000a81548160ff02191690836003811115610d6f57610d6e612e35565b5b02179055503373ffffffffffffffffffffffffffffffffffffffff163373ffffffffffffffffffffffffffffffffffffffff16827f8e5a6b755a85f8665fba0aadd1657494e5c878a67877534e7c7319143f4a0b276003604051610dd391906135de565b60405180910390a4508080600101915050610bde565b505050565b60055481565b60008054906101000a900473ffffffffffffffffffffffffffffffffffffffff1673ffffffffffffffffffffffffffffffffffffffff163373ffffffffffffffffffffffffffffffffffffffff1614610e82576040517f08c379a0000000000000000000000000000000000000000000000000000000008152600401610e79906137fb565b60405180910390fd5b6000600260008373ffffffffffffffffffffffffffffffffffffffff1673ffffffffffffffffffffffffffffffffffffffff16815260200190815260200160002060006101000a81548160ff0219169083151502179055508073ffffffffffffffffffffffffffffffffffffffff167f126174f6cf49c81cdb4a9214c6b8f037bef55b4ec31e4fc776cea2a1c8a88d5960405160405180910390a250565b6000600360008373ffffffffffffffffffffffffffffffffffffffff1673ffffffffffffffffffffffffffffffffffffffff16815260200190815260200160002060009054906101000a900460ff169050919050565b60008054906101000a900473ffffffffffffffffffffffffffffffffffffffff1673ffffffffffffffffffffffffffffffffffffffff163373ffffffffffffffffffffffffffffffffffffffff1614611004576040517f08c379a0000000000000000000000000000000000000000000000000000000008152600401610ffb906137fb565b60405180910390fd5b60018060008373ffffffffffffffffffffffffffffffffffffffff1673ffffffffffffffffffffffffffffffffffffffff16815260200190815260200160002060006101000a81548160ff0219169083151502179055508073ffffffffffffffffffffffffffffffffffffffff167f561138658ca49a8540dc70dcfe64c9026c1c5b9344642242dd6562970f9c127860405160405180910390a250565b60008054906101000a900473ffffffffffffffffffffffffffffffffffffffff1673ffffffffffffffffffffffffffffffffffffffff163373ffffffffffffffffffffffffffffffffffffffff161461112f576040517f08c379a0000000000000000000000000000000000000000000000000000000008152600401611126906137fb565b60405180910390fd5b6000600160008373ffffffffffffffffffffffffffffffffffffffff1673ffffffffffffffffffffffffffffffffffffffff16815260200190815260200160002060006101000a81548160ff0219169083151502179055508073ffffffffffffffffffffffffffffffffffffffff167f2fed5abf6a80d6dfe30b4895481b2fc5d7dce5f8f7b931832f4a2947d5040c7f60405160405180910390a250565b60008054906101000a900473ffffffffffffffffffffffffffffffffffffffff1673ffffffffffffffffffffffffffffffffffffffff163373ffffffffffffffffffffffffffffffffffffffff161461125b576040517f08c379a0000000000000000000000000000000000000000000000000000000008152600401611252906137fb565b60405180910390fd5b6000600360008373ffffffffffffffffffffffffffffffffffffffff1673ffffffffffffffffffffffffffffffffffffffff16815260200190815260200160002060006101000a81548160ff0219169083151502179055508073ffffffffffffffffffffffffffffffffffffffff167fdb7176e79cffef81cb01767dd0447a0b24bb72ca9778d4b245581086b2a7e6db60405160405180910390a250565b60008054906101000a900473ffffffffffffffffffffffffffffffffffffffff1673ffffffffffffffffffffffffffffffffffffffff163373ffffffffffffffffffffffffffffffffffffffff1614611387576040517f08c379a000000000000000000000000000000000000000000000000000000000815260040161137e906137fb565b60405180910390fd5b6001600260008373ffffffffffffffffffffffffffffffffffffffff1673ffffffffffffffffffffffffffffffffffffffff16815260200190815260200160002060006101000a81548160ff0219169083151502179055508073ffffffffffffffffffffffffffffffffffffffff167fddbf200aa634dc3fb81cfd68583dd1040d1c751d335e1d86b631bde3e977fea860405160405180910390a250565b600260003373ffffffffffffffffffffffffffffffffffffffff1673ffffffffffffffffffffffffffffffffffffffff16815260200190815260200160002060009054906101000a900460ff166114b1576040517f08c379a00000000000000000000000000000000000000000000000000000000081526004016114a89061388d565b60405180910390fd5b600083839050116114f7576040517f08c379a00000000000000000000000000000000000000000000000000000000081526004016114ee90613393565b60405180910390fd5b606483839050111561153e576040517f08c379a000000000000000000000000000000000000000000000000000000000815260040161153590613425565b60405180910390fd5b600360008273ffffffffffffffffffffffffffffffffffffffff1673ffffffffffffffffffffffffffffffffffffffff16815260200190815260200160002060009054906101000a900460ff166115ca576040517f08c379a00000000000000000000000000000000000000000000000000000000081526004016115c1906138f9565b60405180910390fd5b60005b8383905081101561182d5760008484838181106115ed576115ec6134b1565b5b9050602002013590503373ffffffffffffffffffffffffffffffffffffffff166004600083815260200190815260200160002060050160009054906101000a900473ffffffffffffffffffffffffffffffffffffffff1673ffffffffffffffffffffffffffffffffffffffff161461169a576040517f08c379a00000000000000000000000000000000000000000000000000000000081526004016116919061352c565b60405180910390fd5b600160038111156116ae576116ad612e35565b5b6004600083815260200190815260200160002060050160149054906101000a900460ff1660038111156116e4576116e3612e35565b5b14611724576040517f08c379a000000000000000000000000000000000000000000000000000000000815260040161171b9061398b565b60405180910390fd5b826004600083815260200190815260200160002060050160006101000a81548173ffffffffffffffffffffffffffffffffffffffff021916908373ffffffffffffffffffffffffffffffffffffffff16021790555060026004600083815260200190815260200160002060050160146101000a81548160ff021916908360038111156117b3576117b2612e35565b5b02179055508273ffffffffffffffffffffffffffffffffffffffff163373ffffffffffffffffffffffffffffffffffffffff16827f8e5a6b755a85f8665fba0aadd1657494e5c878a67877534e7c7319143f4a0b27600260405161181791906135de565b60405180910390a45080806001019150506115cd565b50505050565b60008054906101000a900473ffffffffffffffffffffffffffffffffffffffff1681565b60008054906101000a900473ffffffffffffffffffffffffffffffffffffffff1673ffffffffffffffffffffffffffffffffffffffff163373ffffffffffffffffffffffffffffffffffffffff16146118e5576040517f08c379a00000000000000000000000000000000000000000000000000000000081526004016118dc906137fb565b60405180910390fd5b6001600360008373ffffffffffffffffffffffffffffffffffffffff1673ffffffffffffffffffffffffffffffffffffffff16815260200190815260200160002060006101000a81548160ff0219169083151502179055508073ffffffffffffffffffffffffffffffffffffffff167f71ae26cad02663e3d92efd6ec56031a80d74a20c0ab4183faa8bf262261c9baa60405160405180910390a250565b600360003373ffffffffffffffffffffffffffffffffffffffff1673ffffffffffffffffffffffffffffffffffffffff16815260200190815260200160002060009054906101000a900460ff16611a0f576040517f08c379a0000000000000000000000000000000000000000000000000000000008152600401611a069061366b565b60405180910390fd5b3373ffffffffffffffffffffffffffffffffffffffff166004600083815260200190815260200160002060050160009054906101000a900473ffffffffffffffffffffffffffffffffffffffff1673ffffffffffffffffffffffffffffffffffffffff1614611ab3576040517f08c379a0000000000000000000000000000000000000000000000000000000008152600401611aaa906139f7565b60405180910390fd5b60026003811115611ac757611ac6612e35565b5b6004600083815260200190815260200160002060050160149054906101000a900460ff166003811115611afd57611afc612e35565b5b14611b3d576040517f08c379a0000000000000000000000000000000000000000000000000000000008152600401611b3490613769565b60405180910390fd5b60036004600083815260200190815260200160002060050160146101000a81548160ff02191690836003811115611b7757611b76612e35565b5b02179055503373ffffffffffffffffffffffffffffffffffffffff163373ffffffffffffffffffffffffffffffffffffffff16827f8e5a6b755a85f8665fba0aadd1657494e5c878a67877534e7c7319143f4a0b276003604051611bdb91906135de565b60405180910390a450565b6000600260008373ffffffffffffffffffffffffffffffffffffffff1673ffffffffffffffffffffffffffffffffffffffff16815260200190815260200160002060009054906101000a900460ff169050919050565b600260003373ffffffffffffffffffffffffffffffffffffffff1673ffffffffffffffffffffffffffffffffffffffff16815260200190815260200160002060009054906101000a900460ff16611cc8576040517f08c379a0000000000000000000000000000000000000000000000000000000008152600401611cbf9061388d565b60405180910390fd5b3373ffffffffffffffffffffffffffffffffffffffff166004600084815260200190815260200160002060050160009054906101000a900473ffffffffffffffffffffffffffffffffffffffff1673ffffffffffffffffffffffffffffffffffffffff1614611d6c576040517f08c379a0000000000000000000000000000000000000000000000000000000008152600401611d63906139f7565b60405180910390fd5b60016003811115611d8057611d7f612e35565b5b6004600084815260200190815260200160002060050160149054906101000a900460ff166003811115611db657611db5612e35565b5b14611df6576040517f08c379a0000000000000000000000000000000000000000000000000000000008152600401611ded9061398b565b60405180910390fd5b600360008273ffffffffffffffffffffffffffffffffffffffff1673ffffffffffffffffffffffffffffffffffffffff16815260200190815260200160002060009054906101000a900460ff16611e82576040517f08c379a0000000000000000000000000000000000000000000000000000000008152600401611e79906138f9565b60405180910390fd5b806004600084815260200190815260200160002060050160006101000a81548173ffffffffffffffffffffffffffffffffffffffff021916908373ffffffffffffffffffffffffffffffffffffffff16021790555060026004600084815260200190815260200160002060050160146101000a81548160ff02191690836003811115611f1157611f10612e35565b5b02179055508073ffffffffffffffffffffffffffffffffffffffff163373ffffffffffffffffffffffffffffffffffffffff16837f8e5a6b755a85f8665fba0aadd1657494e5c878a67877534e7c7319143f4a0b276002604051611f7591906135de565b60405180910390a45050565b600160003373ffffffffffffffffffffffffffffffffffffffff1673ffffffffffffffffffffffffffffffffffffffff16815260200190815260200160002060009054906101000a900460ff1661200d576040517f08c379a000000000000000000000000000000000000000000000000000000000815260040161200490612f94565b60405180910390fd5b60008111612050576040517f08c379a000000000000000000000000000000000000000000000000000000000815260040161204790613a63565b60405180910390fd5b6101f4811115612095576040517f08c379a000000000000000000000000000000000000000000000000000000000815260040161208c90613acf565b60405180910390fd5b600060016005546120a69190613aef565b905060005b828110156122ab57600560008154809291906120c690612fe3565b91905055506040518060e0016040528060055481526020018781526020018681526020018581526020013373ffffffffffffffffffffffffffffffffffffffff1681526020013373ffffffffffffffffffffffffffffffffffffffff1681526020016000600381111561213c5761213b612e35565b5b8152506004600060055481526020019081526020016000206000820151816000015560208201518160010190816121739190613237565b50604082015181600201556060820151816003015560808201518160040160006101000a81548173ffffffffffffffffffffffffffffffffffffffff021916908373ffffffffffffffffffffffffffffffffffffffff16021790555060a08201518160050160006101000a81548173ffffffffffffffffffffffffffffffffffffffff021916908373ffffffffffffffffffffffffffffffffffffffff16021790555060c08201518160050160146101000a81548160ff0219169083600381111561224157612240612e35565b5b02179055509050503373ffffffffffffffffffffffffffffffffffffffff166005547f1d8f371d44e55e5357653f92f7f728d0132e3d73a4d371c2148566c82ad560db88888860405161229693929190613309565b60405180910390a380806001019150506120ab565b503373ffffffffffffffffffffffffffffffffffffffff167f264d08945a433fc93077f5060c8808e2a23372acf0b6f0d8668cebcfcde8233e8260055488866040516122fa9493929190613b23565b60405180910390a25050505050565b60046020528060005260406000206000915090508060000154908060010180546123329061305a565b80601f016020809104026020016040519081016040528092919081815260200182805461235e9061305a565b80156123ab5780601f10612380576101008083540402835291602001916123ab565b820191906000526020600020905b81548152906001019060200180831161238e57829003601f168201915b5050505050908060020154908060030154908060040160009054906101000a900473ffffffffffffffffffffffffffffffffffffffff16908060050160009054906101000a900473ffffffffffffffffffffffffffffffffffffffff16908060050160149054906101000a900460ff16905087565b600160003373ffffffffffffffffffffffffffffffffffffffff1673ffffffffffffffffffffffffffffffffffffffff16815260200190815260200160002060009054906101000a900460ff166124ac576040517f08c379a00000000000000000000000000000000000000000000000000000000081526004016124a390612f94565b60405180910390fd5b3373ffffffffffffffffffffffffffffffffffffffff166004600084815260200190815260200160002060050160009054906101000a900473ffffffffffffffffffffffffffffffffffffffff1673ffffffffffffffffffffffffffffffffffffffff1614612550576040517f08c379a0000000000000000000000000000000000000000000000000000000008152600401612547906139f7565b60405180910390fd5b6000600381111561256457612563612e35565b5b6004600084815260200190815260200160002060050160149054906101000a900460ff16600381111561259a57612599612e35565b5b146125da576040517f08c379a00000000000000000000000000000000000000000000000000000000081526004016125d1906135be565b60405180910390fd5b600260008273ffffffffffffffffffffffffffffffffffffffff1673ffffffffffffffffffffffffffffffffffffffff16815260200190815260200160002060009054906101000a900460ff16612666576040517f08c379a000000000000000000000000000000000000000000000000000000000815260040161265d90613491565b60405180910390fd5b806004600084815260200190815260200160002060050160006101000a81548173ffffffffffffffffffffffffffffffffffffffff021916908373ffffffffffffffffffffffffffffffffffffffff16021790555060016004600084815260200190815260200160002060050160146101000a81548160ff021916908360038111156126f5576126f4612e35565b5b02179055508073ffffffffffffffffffffffffffffffffffffffff163373ffffffffffffffffffffffffffffffffffffffff16837f8e5a6b755a85f8665fba0aadd1657494e5c878a67877534e7c7319143f4a0b27600160405161275991906135de565b60405180910390a45050565b60008054906101000a900473ffffffffffffffffffffffffffffffffffffffff1673ffffffffffffffffffffffffffffffffffffffff163373ffffffffffffffffffffffffffffffffffffffff16146127f3576040517f08c379a00000000000000000000000000000000000000000000000000000000081526004016127ea906137fb565b60405180910390fd5b600073ffffffffffffffffffffffffffffffffffffffff168173ffffffffffffffffffffffffffffffffffffffff1603612862576040517f08c379a000000000000000000000000000000000000000000000000000000000815260040161285990613be1565b60405180910390fd5b806000806101000a81548173ffffffffffffffffffffffffffffffffffffffff021916908373ffffffffffffffffffffffffffffffffffffffff16021790555050565b6000604051905090565b600080fd5b600080fd5b600080fd5b600080fd5b6000601f19601f8301169050919050565b7f4e487b7100000000000000000000000000000000000000000000000000000000600052604160045260246000fd5b61290c826128c3565b810181811067ffffffffffffffff8211171561292b5761292a6128d4565b5b80604052505050565b600061293e6128a5565b905061294a8282612903565b919050565b600067ffffffffffffffff82111561296a576129696128d4565b5b612973826128c3565b9050602081019050919050565b82818337600083830152505050565b60006129a261299d8461294f565b612934565b9050828152602081018484840111156129be576129bd6128be565b5b6129c9848285612980565b509392505050565b600082601f8301126129e6576129e56128b9565b5b81356129f684826020860161298f565b91505092915050565b6000819050919050565b612a12816129ff565b8114612a1d57600080fd5b50565b600081359050612a2f81612a09565b92915050565b600080600060608486031215612a4e57612a4d6128af565b5b600084013567ffffffffffffffff811115612a6c57612a6b6128b4565b5b612a78868287016129d1565b9350506020612a8986828701612a20565b9250506040612a9a86828701612a20565b9150509250925092565b600073ffffffffffffffffffffffffffffffffffffffff82169050919050565b6000612acf82612aa4565b9050919050565b612adf81612ac4565b8114612aea57600080fd5b50565b600081359050612afc81612ad6565b92915050565b600060208284031215612b1857612b176128af565b5b6000612b2684828501612aed565b91505092915050565b60008115159050919050565b612b4481612b2f565b82525050565b6000602082019050612b5f6000830184612b3b565b92915050565b600080fd5b600080fd5b60008083601f840112612b8557612b846128b9565b5b8235905067ffffffffffffffff811115612ba257612ba1612b65565b5b602083019150836020820283011115612bbe57612bbd612b6a565b5b9250929050565b600080600060408486031215612bde57612bdd6128af565b5b600084013567ffffffffffffffff811115612bfc57612bfb6128b4565b5b612c0886828701612b6f565b93509350506020612c1b86828701612aed565b9150509250925092565b60008060208385031215612c3c57612c3b6128af565b5b600083013567ffffffffffffffff811115612c5a57612c596128b4565b5b612c6685828601612b6f565b92509250509250929050565b612c7b816129ff565b82525050565b6000602082019050612c966000830184612c72565b92915050565b612ca581612ac4565b82525050565b6000602082019050612cc06000830184612c9c565b92915050565b600060208284031215612cdc57612cdb6128af565b5b6000612cea84828501612a20565b91505092915050565b60008060408385031215612d0a57612d096128af565b5b6000612d1885828601612a20565b9250506020612d2985828601612aed565b9150509250929050565b60008060008060808587031215612d4d57612d4c6128af565b5b600085013567ffffffffffffffff811115612d6b57612d6a6128b4565b5b612d77878288016129d1565b9450506020612d8887828801612a20565b9350506040612d9987828801612a20565b9250506060612daa87828801612a20565b91505092959194509250565b600081519050919050565b600082825260208201905092915050565b60005b83811015612df0578082015181840152602081019050612dd5565b60008484015250505050565b6000612e0782612db6565b612e118185612dc1565b9350612e21818560208601612dd2565b612e2a816128c3565b840191505092915050565b7f4e487b7100000000000000000000000000000000000000000000000000000000600052602160045260246000fd5b60048110612e7557612e74612e35565b5b50565b6000819050612e8682612e64565b919050565b6000612e9682612e78565b9050919050565b612ea681612e8b565b82525050565b600060e082019050612ec1600083018a612c72565b8181036020830152612ed38189612dfc565b9050612ee26040830188612c72565b612eef6060830187612c72565b612efc6080830186612c9c565b612f0960a0830185612c9c565b612f1660c0830184612e9d565b98975050505050505050565b7f4163636573732064656e6965643a204f6e6c79206d616e75666163747572657260008201527f7320616c6c6f7765640000000000000000000000000000000000000000000000602082015250565b6000612f7e602983612dc1565b9150612f8982612f22565b604082019050919050565b60006020820190508181036000830152612fad81612f71565b9050919050565b7f4e487b7100000000000000000000000000000000000000000000000000000000600052601160045260246000fd5b6000612fee826129ff565b91507fffffffffffffffffffffffffffffffffffffffffffffffffffffffffffffffff82036130205761301f612fb4565b5b600182019050919050565b7f4e487b7100000000000000000000000000000000000000000000000000000000600052602260045260246000fd5b6000600282049050600182168061307257607f821691505b6020821081036130855761308461302b565b5b50919050565b60008190508160005260206000209050919050565b60006020601f8301049050919050565b600082821b905092915050565b6000600883026130ed7fffffffffffffffffffffffffffffffffffffffffffffffffffffffffffffffff826130b0565b6130f786836130b0565b95508019841693508086168417925050509392505050565b6000819050919050565b600061313461312f61312a846129ff565b61310f565b6129ff565b9050919050565b6000819050919050565b61314e83613119565b61316261315a8261313b565b8484546130bd565b825550505050565b600090565b61317761316a565b613182818484613145565b505050565b5b818110156131a65761319b60008261316f565b600181019050613188565b5050565b601f8211156131eb576131bc8161308b565b6131c5846130a0565b810160208510156131d4578190505b6131e86131e0856130a0565b830182613187565b50505b505050565b600082821c905092915050565b600061320e600019846008026131f0565b1980831691505092915050565b600061322783836131fd565b9150826002028217905092915050565b61324082612db6565b67ffffffffffffffff811115613259576132586128d4565b5b613263825461305a565b61326e8282856131aa565b600060209050601f8311600181146132a1576000841561328f578287015190505b613299858261321b565b865550613301565b601f1984166132af8661308b565b60005b828110156132d7578489015182556001820191506020850194506020810190506132b2565b868310156132f457848901516132f0601f8916826131fd565b8355505b6001600288020188555050505b505050505050565b600060608201905081810360008301526133238186612dfc565b90506133326020830185612c72565b61333f6040830184612c72565b949350505050565b7f4e6f206d65646963696e65732073706563696669656400000000000000000000600082015250565b600061337d601683612dc1565b915061338882613347565b602082019050919050565b600060208201905081810360008301526133ac81613370565b9050919050565b7f4d6178696d756d20313030206d65646963696e6573207065722062617463682060008201527f7472616e73666572000000000000000000000000000000000000000000000000602082015250565b600061340f602883612dc1565b915061341a826133b3565b604082019050919050565b6000602082019050818103600083015261343e81613402565b9050919050565b7f496e76616c6964206469737472696275746f7220616464726573730000000000600082015250565b600061347b601b83612dc1565b915061348682613445565b602082019050919050565b600060208201905081810360008301526134aa8161346e565b9050919050565b7f4e487b7100000000000000000000000000000000000000000000000000000000600052603260045260246000fd5b7f596f7520646f6e74206f776e20616c6c206d65646963696e6573000000000000600082015250565b6000613516601a83612dc1565b9150613521826134e0565b602082019050919050565b6000602082019050818103600083015261354581613509565b9050919050565b7f4d65646963696e65206d75737420626520696e204d616e75666163747572656460008201527f2073746174650000000000000000000000000000000000000000000000000000602082015250565b60006135a8602683612dc1565b91506135b38261354c565b604082019050919050565b600060208201905081810360008301526135d78161359b565b9050919050565b60006020820190506135f36000830184612e9d565b92915050565b7f4163636573732064656e6965643a204f6e6c792072657461696c65727320616c60008201527f6c6f776564000000000000000000000000000000000000000000000000000000602082015250565b6000613655602583612dc1565b9150613660826135f9565b604082019050919050565b6000602082019050818103600083015261368481613648565b9050919050565b7f4d6178696d756d20313030206d65646963696e65732070657220626174636800600082015250565b60006136c1601f83612dc1565b91506136cc8261368b565b602082019050919050565b600060208201905081810360008301526136f0816136b4565b9050919050565b7f4d65646963696e65206d75737420626520696e20546f52657461696c6572207360008201527f7461746500000000000000000000000000000000000000000000000000000000602082015250565b6000613753602483612dc1565b915061375e826136f7565b604082019050919050565b6000602082019050818103600083015261378281613746565b9050919050565b7f4163636573732064656e6965643a204f6e6c79206f776e657220616c6c6f776560008201527f6400000000000000000000000000000000000000000000000000000000000000602082015250565b60006137e5602183612dc1565b91506137f082613789565b604082019050919050565b60006020820190508181036000830152613814816137d8565b9050919050565b7f4163636573732064656e6965643a204f6e6c79206469737472696275746f727360008201527f20616c6c6f776564000000000000000000000000000000000000000000000000602082015250565b6000613877602883612dc1565b91506138828261381b565b604082019050919050565b600060208201905081810360008301526138a68161386a565b9050919050565b7f496e76616c69642072657461696c657220616464726573730000000000000000600082015250565b60006138e3601883612dc1565b91506138ee826138ad565b602082019050919050565b60006020820190508181036000830152613912816138d6565b9050919050565b7f4d65646963696e65206d75737420626520546f4469737472696275746f72207360008201527f7461746500000000000000000000000000000000000000000000000000000000602082015250565b6000613975602483612dc1565b915061398082613919565b604082019050919050565b600060208201905081810360008301526139a481613968565b9050919050565b7f596f7520646f6e7420686176652074686973206d65646963696e650000000000600082015250565b60006139e1601b83612dc1565b91506139ec826139ab565b602082019050919050565b60006020820190508181036000830152613a10816139d4565b9050919050565b7f5175616e74697479206d7573742062652067726561746572207468616e203000600082015250565b6000613a4d601f83612dc1565b9150613a5882613a17565b602082019050919050565b60006020820190508181036000830152613a7c81613a40565b9050919050565b7f4d6178696d756d20353030206d65646963696e65732070657220626174636800600082015250565b6000613ab9601f83612dc1565b9150613ac482613a83565b602082019050919050565b60006020820190508181036000830152613ae881613aac565b9050919050565b6000613afa826129ff565b9150613b05836129ff565b9250828201905080821115613b1d57613b1c612fb4565b5b92915050565b6000608082019050613b386000830187612c72565b613b456020830186612c72565b8181036040830152613b578185612dfc565b9050613b666060830184612c72565b95945050505050565b7f496e76616c696420616464726573733a204e6577206f776e65722063616e6e6f60008201527f74206265207a65726f2061646472657373000000000000000000000000000000602082015250565b6000613bcb603183612dc1565b9150613bd682613b6f565b604082019050919050565b60006020820190508181036000830152613bfa81613bbe565b905091905056fea26469706673582212208422576dce5e014357343c27dc7cac3ca2ccc20c1e08df10a7e5530c9a8fcee264736f6c634300081c0033",
  "linkReferences": {},
  "deployedLinkReferences": {}
}